:0C0000000C944D000C9400000C940000C7
:10000C000C9400000C9400000C9400000C94000064
:10001C000C9400000C9400000C9400000C94000054
:10002C000C9400000C9400000C9400000C94000044
:10003C000C9400000C9400000C9400000C94000034
:10004C000C9400000C9400000C9400000C94000024
:10005C000C9400000C9400000C9400000C94000014
:10006C000C9400001027E80364000A000100001043
:10007C0000011000010025640A0001002D4E414EC4
:10008C0000494E4600000100000286000000F89472
:10009C00EE27ECBBF1E0FBBFEBBFE5BFE6BF8DE0AD
:1000AC00A2E0BB27ED938A95E9F780E094E0A0E00D
:1000BC00B1E0ED930197E9F7E2E9F0E085919591D4
:1000CC00009761F0A591B59105901590BF01F001D5
:1000DC0005900D920197E1F7FB01F0CFEFEFEDBF2B
:1000EC00E4E0EEBFC0E0D2E00C947C00E0E8E093EA
:1000FC006100E0E0E0936100EABBEBBBE7BBEFEF34
:10010C00E8BBE0E0E4BBE5BBEFEFE1BBE2BBE0E06A
:10011C00E6B9E7B9EBB9E8E0EAB9E6E0E0BDE0E062
:10012C00E0BDEDE4E9B944245524F20131962F01E8
:10013C00E2E8F0E0FA93EA93F2010E946E020E9468
:10014C007B0284E050D12696A4E6B0E00E945C02CB
:10015C00ECCF0000FECFAA935D9BFECFE881ECB9FB
:10016C0021960895BA93AA93AA81F5DFA881B98143
:10017C00ED91FD913196FE93EE9323960895BA93EB
:10018C00AA9326970E94800210E0AC85BD85E0E022
:10019C00F0E0ED93FC93EA89FB893196EA8BFB8BBB
:1001AC003197E4912E2FE03009F415C1E12FE030A6
:1001BC0039F4253211F411E002C00E9437020AC151
:1001CC00E130A9F4253219F40E94370202C112E081
:1001DC0040E000E02D3211F401E0FCC02B3211F4B0
:1001EC004BE2F8C0203211F440E2F4C002C0E2301D
:1001FC0039F450E013E0203311F40068EBC003C075
:10020C00E33009F0E7C0203310F02A3308F007C0C0
:10021C00AAE05A9F502DE22FE0535E0FDBC0E22F75
:10022C00E33649F40E943E02E889F989A481AA9335
:10023C000E944402CEC0E33741F40E943E020E9469
:10024C004A020E941E021E2F0AC0E03761F40E946F
:10025C003E020E944A020E942A021E2F086002607F
:10026C000F7730E034C0E43611F0E93611F4046055
:10027C0002C0E53731F4E0E7F0E0EE83FF8315E0F0
:10028C000CC0E83511F4086003C0E83709F0A1C0D0
:10029C00EAE7F0E0EE83FF8314E002FF14C00E9453
:1002AC003E020E945402AB85AA233AF4EA85FB85F0
:1002BC000E946A02EA87FB874DE2403011F01F5F13
:1002CC0001C00B7F04C00E943E020E94540200FD3C
:1002DC0011C0151778F407FF08C002FF04C00B7F8C
:1002EC00242F115001C020E301C020E20E943702EC
:1002FC005150EFCF312F01FF17C03030A1F003FF69
:10030C0006C0EE81FF812591EE83FF8305C0AE818F
:10031C00BF812D91AE83BF830E943702503009F00C
:10032C0051503150EACF4BC020E3EE81FF810E9447
:10033C007702E887F987EE81FF813296EE83FF839F
:10034C00E885F985AA85BB85AE17BF0750F02F5FEE
:10035C00A885B985EA85FB85EA1BFB0BEA87FB8739
:10036C00EFCF2A3328F003FF02C0295F01C0295DBB
:10037C0004FD1AC0213320F4A885B985119709F41E
:10038C0009C0531710F000FF01C013C020E207FF93
:10039C000BC020E3006102FF07C00B7F4A930E9451
:1003AC004402503009F051500E943702503009F08D
:1003BC0051503150A885B985129708F0B5CF00FF80
:1003CC0008C0503031F05150E0E2EA930E944402F0
:1003DC00F8CF10E0E0CEAC85BD850E9473020E9480
:1003EC00870264960895FF92F82E26971A930A9323
:1003FC00DE0114960E9466028D01E0E0EC83ED8331
:10040C00EE83EF83DE0118960E9466020E9473024F
:10041C00FA93EA931A930A93E8EBF0E0FA93EA93CF
:10042C00DE011896ACDE198108812896FF9008959C
:10043C00BA93AA93A991B991EE27FF276D916623E0
:10044C0011F03196FBCF0895BA93AA93AA27BB2734
:10045C00E991F9910590002011F01196FBCFFD0167
:10046C0008952A93AD85BE85EF85F8890995089581
:10047C00E889F9893497E88BF98B0895AD85BE85A9
:10048C00EF85F88909950895A889B98914960E9471
:10049C007302EE83FF83AE81BF810895A889B98969
:1004AC0014960E947302EA87FB870895109639F020
:1004BC0088EB9BE00197F1F7A8951197C9F7089580
:1004CC000024AF0DB01D0895F195E195F04008950D
:1004DC006F2F660F660B762F0895ED91FC91119797
:1004EC0008950590F491E02D08957A936A93FA9308
:1004FC00EA9308955A934A933A932A931A930A9338
:10050C0008955D814C813B812A8119810881089570
:00000001FF
